:020000040800F2
:1000000000800120852E0008992D00089B2D0008F6
:100010009D2D00089F2D0008A12D00080000000064
:10002000000000000000000000000000A32D0008F8
:10003000A52D000800000000A72D0008A92D00082C
:10004000D52E0008D52E0008D52E0008D52E000884
:10005000D52E0008D52E0008D52E0008D52E000874
:10006000D52E0008D52E0008D52E0008D52E000864
:10007000D52E0008D52E0008D52E0008D52E000854
:10008000D52E0008D52E0008AD2D0008D52E00086D
:10009000D52E0008D52E0008D52E0008D52E000834
:1000A000D52E0008D52E0008D52E0008D52E000824
:1000B000D52E0008D52E0008D52E0008D52E000814
:1000C000D52E0008D52E0008D52E0008D52E000804
:1000D000D52E0008D52E0008D52E0008D52E0008F4
:1000E000D52E0008D52E0008D52E0008D52E0008E4
:1000F000D52E0008D52E0008D52E0008D52E0008D4
:10010000D52E0008D52E0008D52E0008D52E0008C3
:10011000D52E0008D52E0008D52E0008D52E0008B3
:10012000D52E0008D52E0008D52E0008D52E0008A3
:10013000D52E0008D52E0008D52E0008D52E000893
:10014000D52E0008D52E0008D52E0008D52E000883
:10015000D52E0008D52E0008D52E0008D52E000873
:10016000D52E0008D52E0008D52E0008D52E000863
:10017000D52E0008D52E0008000000000000000069
:08018000D52E0008D52E000861
:1001900010B5054C237833B9044B13B10448AFF3C1
:1001A00000800123237010BD7C06002000000000A9
:1001B000C069000808B5034B1BB103490348AFF3FE
:1001C000008008BD0000000080060020C069000813
:1001D00001F0FF01102A2BDB10F0070F08D010F8F8
:1001E000013B013A8B422DD010F0070F42B3F6D1FC
:1001F000F0B441EA012141EA014122F007047FF015
:1002000000070023F0E80256083C85EA010586EA6B
:10021000010685FA47F5A3FA87F586FA47F6A5FAA7
:1002200087F68EB9EED1F0BC01F0FF0102F00702B3
:1002300032B110F8013B013A83EA010313B1F8D15E
:100240000020704701387047002D06BF354603383F
:10025000073815F0010F07D1013015F4807F02BF78
:10026000013015F4C03F0130F0BC0138704700BFC9
:10027000034613F8012B002AFBD1181A01387047E6
:1002800081F0004102E000BF83F0004330B54FEA47
:1002900041044FEA430594EA050F08BF90EA020FB4
:1002A0001FBF54EA000C55EA020C7FEA645C7FEA47
:1002B000655C00F0E2804FEA5454D4EB5555B8BF6A
:1002C0006D420CDD2C4480EA020281EA030382EADB
:1002D000000083EA010180EA020281EA0303362D6D
:1002E00088BF30BD11F0004F4FEA01314FF4801C40
:1002F0004CEA113102D0404261EB410113F0004F52
:100300004FEA03334CEA133302D0524263EB430308
:1003100094EA050F00F0A780A4F10104D5F1200EA6
:100320000DDB02FA0EFC22FA05F2801841F1000101
:1003300003FA0EF2801843FA05F359410EE0A5F1D5
:1003400020050EF1200E012A03FA0EFC28BF4CF006
:10035000020C43FA05F3C01851EBE37101F00045BC
:1003600007D54FF0000EDCF1000C7EEB00006EEBC9
:100370000101B1F5801F1BD3B1F5001F0CD3490853
:100380005FEA30004FEA3C0C04F101044FEA4452AA
:1003900012F5800F80F09A80BCF1004F08BF5FEA31
:1003A000500C50F1000041EB045141EA050130BD11
:1003B0005FEA4C0C404141EB010111F4801FA4F1B4
:1003C0000104E9D191F0000F04BF01460020B1FA09
:1003D00081F308BF2033A3F10B03B3F120020CDA41
:1003E0000C3208DD02F1140CC2F10C0201FA0CF01F
:1003F00021FA02F10CE002F11402D8BFC2F1200C84
:1004000001FA02F120FA0CFCDCBF41EA0C01904039
:10041000E41AA2BF01EB0451294330BD6FEA040482
:100420001F3C1CDA0C340EDC04F11404C4F120026D
:1004300020FA04F001FA02F340EA030021FA04F37F
:1004400045EA030130BDC4F10C04C4F1200220FAD6
:1004500002F001FA04F340EA0300294630BD21FA14
:1004600004F0294630BD94F0000F83F4801306BFDA
:1004700081F480110134013D4EE77FEA645C18BFCE
:100480007FEA655C29D094EA050F08BF90EA020F65
:1004900005D054EA000C04BF1946104630BD91EA5D
:1004A000030F1EBF0021002030BD5FEA545C05D160
:1004B0004000494128BF41F0004130BD14F580049F
:1004C0003CBF01F5801130BD01F0004545F0FE4113
:1004D00041F470014FF0000030BD7FEA645C1ABF48
:1004E000194610467FEA655C1CBF0B46024650EA7F
:1004F000013406BF52EA033591EA030F41F40021AB
:1005000030BD00BF90F0000F04BF0021704730B530
:100510004FF4806404F132044FF000054FF0000105
:1005200050E700BF90F0000F04BF0021704730B5C6
:100530004FF4806404F1320410F0004548BF40429B
:100540004FF000013EE700BF42004FEAE2014FEAF0
:1005500031014FEA02701FBF12F07F4393F07F4FCB
:1005600081F06051704792F0000F14BF93F07F4FFD
:10057000704730B54FF4607401F0004521F0004140
:1005800020E700BF50EA010208BF704730B54FF0C6
:1005900000050AE050EA010208BF704730B511F0CB
:1005A000004502D5404261EB41014FF4806404F103
:1005B00032045FEA915C3FF4DCAE4FF003025FEA85
:1005C000DC0C18BF03325FEADC0C18BF033202EB0D
:1005D000DC02C2F1200300FA03FC20FA02F001FA67
:1005E00003FE40EA0E0021FA02F11444C1E600BF06
:1005F00070B54FF0FF0C4CF4E06C1CEA11541DBFB9
:100600001CEA135594EA0C0F95EA0C0F00F0DEF883
:100610002C4481EA030621EA4C5123EA4C5350EA68
:10062000013518BF52EA033541F4801143F48013B9
:1006300038D0A0FB02CE4FF00005E1FB02E506F04A
:100640000042E0FB03E54FF00006E1FB03569CF09F
:10065000000F18BF4EF0010EA4F1FF04B6F5007FA5
:1006600064F5407404D25FEA4E0E6D4146EB060617
:1006700042EAC62141EA55514FEAC52040EA5E50A0
:100680004FEACE2EB4F1FD0C88BFBCF5E06F1ED84A
:10069000BEF1004F08BF5FEA500E50F1000041EB81
:1006A000045170BD06F0004646EA010140EA02002E
:1006B00081EA0301B4EB5C04C2BFD4EB0C0541EA50
:1006C000045170BD41F480114FF0000E013C00F365
:1006D000AB8014F1360FDEBF002001F0004170BD89
:1006E000C4F10004203C35DA0C341BDC04F11404A2
:1006F000C4F1200500FA05F320FA04F001FA05F22E
:1007000040EA020001F0004221F0004110EBD370FA
:1007100021FA04F642EB06015EEA430E08BF20EA26
:10072000D37070BDC4F10C04C4F1200500FA04F3C9
:1007300020FA05F001FA04F240EA020001F000415B
:1007400010EBD37041F100015EEA430E08BF20EACE
:10075000D37070BDC4F1200500FA05F24EEA020E16
:1007600020FA04F301FA05F243EA020321FA04F045
:1007700001F0004121FA04F220EA020000EBD370FC
:100780005EEA430E08BF20EAD37070BD94F0000FFC
:100790000FD101F00046400041EB010111F4801F30
:1007A00008BF013CF7D041EA060195F0000F18BFE1
:1007B000704703F00046520043EB030313F4801F1D
:1007C00008BF013DF7D043EA0603704794EA0C0FD7
:1007D0000CEA135518BF95EA0C0F0CD050EA4106ED
:1007E00018BF52EA4306D1D181EA030101F000416A
:1007F0004FF0000070BD50EA410606BF1046194692
:1008000052EA430619D094EA0C0F02D150EA01369D
:1008100013D195EA0C0F05D152EA03361CBF1046DE
:1008200019460AD181EA030101F0004141F0FE417D
:1008300041F470014FF0000070BD41F0FE4141F401
:10084000780170BD70B54FF0FF0C4CF4E06C1CEA01
:1008500011541DBF1CEA135594EA0C0F95EA0C0FB6
:1008600000F0A7F8A4EB050481EA030E52EA033571
:100870004FEA013100F088804FEA03334FF0805592
:1008800045EA131343EA12634FEA022245EA1115BF
:1008900045EA10654FEA00260EF000419D4208BF70
:1008A000964244F1FD0404F5407402D25B084FEA1D
:1008B0003202B61A65EB03055B084FEA32024FF4C9
:1008C00080104FF4002CB6EB020E75EB030E22BF26
:1008D000B61A754640EA0C005B084FEA3202B6EBE6
:1008E000020E75EB030E22BFB61A754640EA5C0095
:1008F0005B084FEA3202B6EB020E75EB030E22BF25
:10090000B61A754640EA9C005B084FEA3202B6EB25
:10091000020E75EB030E22BFB61A754640EADC00E4
:1009200055EA060E18D04FEA051545EA16754FEA46
:1009300006164FEAC30343EA52734FEAC2025FEA64
:100940001C1CC0D111F4801F0BD141EA00014FF0F3
:1009500000004FF0004CB6E711F4801F04BF0143C4
:100960000020B4F1FD0C88BFBCF5E06F3FF6AFAEE0
:10097000B5EB030C04BFB6EB020C5FEA500C50F170
:10098000000041EB045170BD0EF0004E4EEA1131F3
:1009900014EB5C04C2BFD4EB0C0541EA045170BDFA
:1009A00041F480114FF0000E013C90E645EA060E3E
:1009B0008DE60CEA135594EA0C0F08BF95EA0C0F6C
:1009C0003FF43BAF94EA0C0F0AD150EA01347FF4B4
:1009D00034AF95EA0C0F7FF425AF104619462CE78B
:1009E00095EA0C0F06D152EA03353FF4FDAE1046EE
:1009F000194622E750EA410618BF52EA43067FF43F
:100A0000C5AE50EA41047FF40DAF52EA43057FF4CE
:100A1000EBAE12E74FF0FF3C06E000BF4FF0010CD9
:100A200002E000BF4FF0010C4DF804CD4FEA410C3D
:100A30007FEA6C5C4FEA430C18BF7FEA6C5C1BD00A
:100A400001B050EA410C0CBF52EA430C91EA030F8B
:100A500002BF90EA020F0020704710F1000F91EAE8
:100A6000030F58BF994208BF90422CBFD8176FEAB6
:100A7000E37040F0010070474FEA410C7FEA6C5C84
:100A800002D150EA013C07D14FEA430C7FEA6C5C8B
:100A9000D6D152EA033CD3D05DF8040B704700BFB7
:100AA0008446104662468C461946634600E000BF05
:100AB00001B5FFF7B7FF002848BF10F1000F01BDD7
:100AC0004DF808EDFFF7F4FF0CBF012000205DF8A2
:100AD00008FB00BF4DF808EDFFF7EAFF34BF012027
:100AE00000205DF808FB00BF4DF808EDFFF7E0FFC0
:100AF00094BF012000205DF808FB00BF4DF808ED11
:100B0000FFF7CEFF94BF012000205DF808FB00BF77
:100B10004DF808EDFFF7C4FF34BF012000205DF859
:100B200008FB00BF4FEA410C7FEA6C5C02D150EA3F
:100B3000013C0AD14FEA430C7FEA6C5C02D152EAD5
:100B4000033C02D14FF0000070474FF001007047A6
:100B50004FEA410212F5001215D211D56FF47873E5
:100B6000B3EB625212D94FEAC12343F0004343EA88
:100B7000505311F0004F23FA02F018BF4042704763
:100B80004FF00000704750EA013005D111F00040ED
:100B900008BF6FF0004070474FF00000704700BF83
:100BA0004FEA4102B2F1E04324BFB3F5001CDCF18F
:100BB000FE5C0DD901F0004C4FEAC0024CEA5070C7
:100BC000B2F1004F40EB830008BF20F001007047F6
:100BD00011F0804F21D113F13872BCBF01F00040F9
:100BE000704741F480114FEA5252C2F11802C2F12B
:100BF000200C10FA0CF320FA02F018BF40F00100AC
:100C00004FEAC1234FEAD32303FA0CFC40EA0C005D
:100C100023FA02F34FEA4303CCE77FEA625307D19A
:100C200050EA01331EBF4FF0FE4040F440007047D1
:100C300001F0004040F0FE4040F40000704700BF6B
:100C400053B94AB9002908BF00281CBF4FF0FF3133
:100C50004FF0FF3000F07AB9ADF1080C6DE904CE29
:100C600000F006F8DDF804E0DDE9022304B0704787
:100C70002DE9F0478C460D460446089E002B51D1C5
:100C80008A4217466DD9B2FA82FEBEF1000F0BD030
:100C9000CEF1200C01FA0EF520FA0CFC02FA0EF748
:100CA0004CEA050C00FA0EF44FEA174A250CBCFB7F
:100CB000FAF81FFA87F90AFB18CC45EA0C4508FB3D
:100CC00009F3AB420AD9ED1908F1FF3280F0238114
:100CD000AB4240F22081A8F102083D44ED1AA4B2D3
:100CE000B5FBFAF00AFB105544EA054400FB09F98C
:100CF000A14509D9E41900F1FF3380F00A81A1452B
:100D000040F2078102383C44A4EB090440EA084061
:100D10000021002E61D024FA0EF4002334607360A9
:100D2000BDE8F0878B4207D9002E54D0002186E819
:100D300021000846BDE8F087B3FA83F1002940F0AE
:100D40008E80AB4202D3824200F2FA80841A65EBB5
:100D500003050120AC46002E3FD086E81010BDE808
:100D6000F08712B90127B7FBF2F7B7FA87FEBEF199
:100D7000000F34D1EB1B3A0C1FFA87FC0121B3FBA7
:100D8000F2F8250C02FB183345EA03450CFB08F387
:100D9000AB4207D9ED1908F1FF3002D2AB4200F2A5
:100DA000D1808046ED1AA3B2B5FBF2F002FB1055DC
:100DB00043EA05440CFB00FCA44507D9E41900F103
:100DC000FF3302D2A44500F2B8801846A4EB0C040D
:100DD00040EA08409DE731463046BDE8F087CEF155
:100DE000200405FA0EF307FA0EF720FA04F83A0C7D
:100DF00025FA04F448EA0308B4FBF2F14FEA184577
:100E000002FB11441FFA87FC45EA044501FB0CF381
:100E1000AB4200FA0EF409D9ED1901F1FF3080F070
:100E20008A80AB4240F2878002393D44EB1A1FFAB8
:100E300088F5B3FBF2F002FB103345EA034500FBF3
:100E40000CF3AB4207D9ED1900F1FF386FD2AB427A
:100E50006DD902383D44EB1A40EA01418FE7C1F1F8
:100E6000200722FA07F88B4005FA01F448EA030349
:100E700020FA07FE4FEA134CFD404EEA040EB5FB84
:100E8000FCF94FEA1E440CFB19551FFA83F844EA9B
:100E9000054509FB08F4AC4202FA01F200FA01FA36
:100EA00008D9ED1809F1FF3043D2AC4241D9A9F17C
:100EB00002091D442D1B1FFA8EFEB5FBFCF00CFB36
:100EC00010554EEA054400FB08F8A04507D9E41880
:100ED00000F1FF3529D2A04527D902381C4440EA49
:100EE0000940A4EB0804A0FB02894C45C6464D46C8
:100EF00015D312D056B1BAEB0E0364EB050404FA15
:100F000007F7CB401F43CC40376074600021BDE839
:100F1000F0871846F8E69046E0E6C245EAD2B8EB1C
:100F2000020E69EB03050138E4E72846D7E740469F
:100F300091E78146BEE7014678E702383C4445E741
:100F4000084608E7A8F102083D442BE7704700BFB8
:100F500038B50F4B0546186808B9012038BD0D4A51
:100F60004FF47A73B3FBF0F31068B0FBF3F000F0CA
:100F7000FDFD04460028F0D10F2DEED8024629468B
:100F80004FF0FF3000F0B0FD034B20461D6038BD30
:100F900000000020080000200400002010B50320FD
:100FA00000F090FD0020FFF7D3FF044618B901F0D0
:100FB000A3FE204610BD0124FBE70000034A0449BC
:100FC000136809680B441360704700BFD006002007
:100FD00000000020014B1868704700BFD0060020B9
:100FE00038B50446FFF7F6FF631C1CBF054B1B68B2
:100FF000054618BFE418FFF7EDFF401B8442FAD8FE
:1010000038BD00BF0000002030B5CC0D04F0040452
:101010001430C1F30451235807258D4023EA0503FA
:1010200002FA01F11943215030BD806800F001003F
:1010300070478068C0F380007047000037B5002318
:1010400001930446002800F08580456D25B901F024
:101050006BFEA56584F85050206883689B007BD4A4
:101060008368DD007FD58368D90040F18A80002144
:10107000FFF7DFFF636D13F0100F636D67D100287A
:1010800065D123F4817343F0020363652068FFF7A1
:10109000CCFF98B95248FFF7C8FF03465148FFF705
:1010A000C4FF03435048FFF7C0FF034306D14F4A34
:1010B0006068936823F47C1303439360E068636B78
:1010C00094F820200343A0680343607E012A43EA8A
:1010D000403343EA024302BF626A02F1FF3243EA4D
:1010E0004243A26A22B1E06A02F4707202431343DF
:1010F00020683F4AC5682A401343C360FFF799FF41
:1011000023689A68120746D52269012A05BF186B21
:10111000E2691A6B02F1FF3206BF20F00F000243B2
:1011200022F00F021A63636D23F0030343F00103FF
:101130006365084603B030BD019B013B0193019BF1
:10114000002BF9D18FE71A6922F0010245E043F044
:10115000100363650121ECE7836823F0204323F04B
:101160003F0383607CE78368224A23F0104323F027
:101170003F0343F0805383601F4B1B68B3FBF2F3C4
:10118000DCE7636D43F010036365A36D43F0010377
:10119000A36501216CE70028B6D1D86894F8302007
:1011A000257E520020F4804042EA853220F0020081
:1011B0000243DA6094F83820012AC4D1256CE26B2E
:1011C00018692A43656C42F001022A43A56C20F499
:1011D000FF602A4320F0040002431A6194E700BF35
:1011E00000000450000104500002045000030450A9
:1011F00007C0F0FF400D0300080000200368186CD2
:10120000704770477047000003682DE9F0411D6882
:101210005E688B4B9F6815F0020F044607F01F07AE
:1012200098460ED0B0070CD5636DD9065EBF636DCE
:1012300043F400636365204600F0CAFB2368022282
:101240001A606A0701D5730703D4280739D5310717
:1012500037D5636D2068DA065EBF636D43F40073B3
:101260006365C36813F4406F25D1764B984208D16B
:10127000092F9DBF40F22123FB40DB430123DA0706
:1012800055D4C3689B0416D40368190713D5FFF718
:10129000D0FE00284ED12268536823F00C0353601F
:1012A000636D23F480736365636DDA0403D4636D47
:1012B00043F001036365204601F016FD23680C220C
:1012C0001A60AB0601D5B00603D4690658D572067C
:1012D00056D5636D5B4ADB065EBF636D43F4005316
:1012E00063652368D86CD968934200F0C00001F4AC
:1012F000406103D117B1BA1F012A24D8DA6828B196
:10130000900137D4002935D1910433D419684806A7
:1013100030D591022ED49A6812071CD5636D43F024
:1013200010036365A36D43F00103A36522E0464B00
:10133000DB68A7E7636D43F010036365A36D43F0BB
:101340000103A365B7E7404AD268D8E72368DB68A2
:1013500013F0010F4CE05A6822F060025A60636D8E
:1013600023F480536365636DDB0503D4636D43F041
:1013700001036365204600F027FB236860221A60A2
:1013800028060BD5310609D5636D43F480336365B8
:101390002046FFF736FF236880221A60EA050CD545
:1013A000F3050AD5636D43F400336365204600F00E
:1013B0000DFB23684FF480721A60A8050CD5B105A7
:1013C0000AD5636D43F480236365204600F0FFFA7D
:1013D00023684FF400721A60EA060DD5F3060BD5A8
:1013E000636BF3B1002FB1D0D8F8083013F4604F1D
:1013F00017D1236810221A6068051ED571051CD507
:10140000636D43F480436365A36D43F00803A365F4
:1014100023684FF4806220461A60BDE8F04100F076
:10142000D4BA636D43F480636365A36D43F0020334
:10143000A3652046FFF7E6FEDBE7BDE8F08100BFCD
:10144000000304500001045000000450F7B50023CD
:10145000019390F85030012B05460C4600F0848132
:10146000012380F850300068FFF7E3FD002840F0CA
:1014700075814B68052B08D8023B032B66D8DFE843
:1014800003F0025E60620C23636062682868236870
:10149000910901F00C0100F1300702F01F02CE5952
:1014A0004FF01F0EC3F3846393400EFA02F226EA54
:1014B00002021343CB51FFF7BCFD2B689A6811075A
:1014C00040F154812868FFF7B0FD002840F0D38038
:1014D000E66828682368BA4AD0F8B01006F0180EFB
:1014E000C3F3120722FA0EF21A4021EA07010A4357
:1014F000C0F8B020B34A964240F0BD80002F40F0C3
:101500008F809E0E013606F01F02092A4FF001015E
:101510004FEA866640F29E8006F0F846914041EA26
:101520000602002F40F0C7809B0E013303F01F031B
:1015300003EB43011E39090541F0007197E01223C6
:10154000A2E71823A0E74FF480739DE706239BE7EB
:10155000196E196EC2F31206C1F38461002E3ED1DA
:10156000C2F384628A4202BF1A6E22F000421A66F7
:101570005A6E22685E6EC2F31207C6F3846600F1EB
:101580000C018FBBC2F38467BE4240F012815A6ED9
:1015900022F000425A66226883688368C2F3120709
:1015A00000F10806C3F3846357BBC2F3846293421D
:1015B00040F01C81336823F000433360C368236824
:1015C000C268C3F31200C2F3846220BBC3F3846316
:1015D000934202BF0B6823F000430B6072E792FA5C
:1015E000A2F2B2FA82F2BDE792FAA2F7B7FA87F74F
:1015F000BE42CCD003F168069F6E9B6EC3F384633A
:1016000092FAA2F2B2FA82F29A42D3D0C368C268C6
:101610002368C2F3846293FAA3F3B3FA83F3D7E7A0
:1016200093FAA3F2B2FA82F2013202F01F02092AFF
:1016300030D893FAA3F6B6FA86F60136B60606F067
:10164000F84693FAA3F1B1FA81F1013101F01F02DA
:10165000012101E006F0F846914041EA0602A7B9EF
:10166000990E013101F01F0101EB41010905114300
:10167000A268FFF7C9FC2268534B1A4220D1002010
:10168000002385F8503003B0F0BD93FAA3F1B1FA0E
:1016900081F1E6E793FAA3F2B2FA82F201329206FE
:1016A00002F0F84693FAA3F1B1FA81F1013101F0A9
:1016B0001F02012132E793FAA3F3B3FA83F334E76D
:1016C0004249434B88689A4200F0E0760C461ED1AE
:1016D0000202D4D42B683F4A934203D002F5007231
:1016E0009342CCD1A3683C4A23F0E073334343F4E4
:1016F0000003A360394B1B68B3FBF2F20C23534386
:101700000193019B002BBAD0019B013BF8E7344BBE
:101710009A4211D1C301B2D42B682E4A934203D00E
:1017200002F500729342AAD1A36823F0E073334319
:1017300043F08073A360A2E72A4B9A429FD110F432
:1017400080009CD12A68234B9A4298D18B6823F061
:10175000E073334343F480038B6091E76A6D42F09A
:1017600020026A6518468BE702208CE700287FF488
:10177000A9AE1846A2682168FFF746FC26692B68C7
:101780002268D968042E03F160003FF4E1AEC1F392
:10179000C1035900636950F8267002F0F84242F024
:1017A00000428B401343104A3A40134340F826301E
:1017B00088E603F168069F6E9B6EC3F38463F4E6CC
:1017C000FFFF070000007F40000008800003045076
:1017D000000052C700000450400D03000800002024
:1017E000000084CB0100008000F0FF03C368C268E2
:1017F0002368C2F38462E9E670B504460068FFF727
:1018000014FC08B1002070BD2268154B9168194284
:1018100009D0636D43F010036365A36D43F00103CA
:10182000A365012070BD93680E4D2B4043F001036A
:101830009360FFF7CFFB064620680368DB07E1D41F
:10184000FFF7F3FB28B9226893682B4043F00103AC
:101850009360FFF7BFFB801B0228EDD9D9E700BFDB
:101860003F000080C0FFFF7F504B70B5044600680A
:101870009E68FFF7DEFB0546002840F0908094F854
:101880005030012B00F08B80012384F8503020462B
:10189000FFF7B2FF00287FD1636D454A23F47063E0
:1018A00023F0010343F4807363652368934206F0D9
:1018B0001F0176D01E46626D22F480126265626D51
:1018C000656912F480521CBFA26D22F00602A26567
:1018D0001C221A60002284F850205A6822F01C0250
:1018E0005A605A68082D0CBF42F0080242F0040208
:1018F0005A60626B1AB95A6842F010025A60B342D9
:1019000008D009299DBF40F22122CA40D2430122BA
:10191000D20722D4DA68910116D5626D22F44052C2
:1019200042F4805262655A68082D0BBF22F02002F3
:1019300022F040025A605A600BBF5A685A6842F05F
:10194000400242F020025A609A6822F0004222F0DF
:101950003F0242F004029A6070BD626D42F4801250
:101960006265F268920120D5626D22F4405242F421
:10197000805262655A68082D0BBF22F0200222F0C7
:1019800040025A605A600BBF5A685A6842F04002DF
:1019900042F020025A6070BD84F8505070BD0220A1
:1019A00070BD044E002986D089E770BD0003045045
:1019B0000001045000000450806800F001007047EE
:1019C0008068C0F380007047704770477047704769
:1019D0007047000030B590F85030012B9BB00246A4
:1019E00066D0012380F85030324B006898420CBF1B
:1019F00003F5807300230193019840B9536D82F879
:101A0000500043F02003536501201BB030BDFFF7A9
:101A1000D7FF03461068FFF7D3FF002842D1002B01
:101A200040D10B68244C33B3A368486823F4604367
:101A3000034392F8300043EA4033A3601D48FFF7A8
:101A4000BBFF03461D48FFF7B7FF03431C48FFF7E2
:101A5000B3FF184304D00020002382F85030D4E7AD
:101A60000B68A56889680B4325F4716121F00F01AB
:101A70000B43A360F0E7A3680E4823F46043A36020
:101A8000FFF79AFF03460D48FFF796FF03430C4804
:101A9000FFF792FF1843DED1A36823F4716323F0AC
:101AA0000F03E6E7536D43F0200353650120D3E7AE
:101AB0000220AAE700000450000304500001045073
:101AC00000020450074AD36823F4E0631B041B0C94
:101AD00043F0BF63000243F4003300F4E0600343CB
:101AE000D360704700ED00E0174B30B5DC68C4F3FD
:101AF0000224C4F10703251D042B28BF0423062D4F
:101B00004FF0010505FA03F303F1FF338CBF033CEB
:101B100000241940A14005FA04F4013C22400028A9
:101B200042EA01024FEA0212ADBF00F1604000F04C
:101B30000F00064B00F56140B5BFD2B2D2B21A54C5
:101B400080F8002330BD00BF00ED00E014ED00E0A0
:101B5000002808DB4209012300F01F0003FA00F00F
:101B6000014B43F82200704700E100E00138B0F17A
:101B7000807F0AD2064B074A5860F02182F8231072
:101B80000020072298601A6070470120704700BF4C
:101B900010E000E000ED00E02DE9F04F85B00B68AB
:101BA000DFF8A881674C01930023019ADA4002D143
:101BB00005B0BDE8F08F0126019A9E4012EA060E9C
:101BC00000F0B1804A6822F01007022F16D14FEAC8
:101BD000D30900EB890903F0070AD9F820504FEA2E
:101BE0008A0A4FF00F0C0CFA0AFC25EA0C0C0D695E
:101BF00005FA0AF545EA0C05C9F820504FEA430CEE
:101C00000325D0F800B005FA0CF5ED4302F0030A05
:101C10000BEA050B0AFA0CF9013F49EA0B09012FFF
:101C2000C0F8009011D8876805EA0709CF6807FA5D
:101C30000CF747EA09078760476827EA0609C2F3F5
:101C400000179F4047EA09074760BAF1030F07D121
:101C5000C76A27EA0606C2F3C0079F403E43C66232
:101C6000C66835408E6806FA0CF63543C560D50067
:101C700059D5D8F8605045F00105C8F86050D8F83B
:101C8000605023F0030606F1804605F0010506F5D5
:101C90008036039503F0030C039DB5684FEA8C0C66
:101CA0000F2707FA0CF7B0F1904F25EA07073CD051
:101CB000254DA8423BD005F58065A84239D005F5F1
:101CC0008065A84237D005F58065A84235D005F576
:101CD0008065A84233D005F58065A84214BF07256A
:101CE000062505FA0CF53D43B56025686FEA0E063A
:101CF000D70354BF35404EEA050525606568970354
:101D000054BF35404EEA05056560A568D70254BF4B
:101D100035404EEA0505A560E568920254BF35409E
:101D20004EEA0505E56001333FE70025D9E70125C7
:101D3000D7E70225D5E70325D3E70425D1E7052515
:101D4000CFE700BF0004014000040048001002403B
:101D50000AB1816170478162704743690B4214BFC9
:101D60008162816170470000024B186800F4C06016
:101D7000704700BF00700040174B1A68B0F5007F35
:101D800002F4C0621CD1B2F5007F15D01A6822F4AB
:101D9000C06242F400721A60104A116832224A434B
:101DA0000F49B2FBF1F2194601325869400500D5DE
:101DB00022B94B695B050DD400207047013AF4E766
:101DC000B2F5806F1FBF1A6822F4C06242F48062CD
:101DD0001A60F1E7032070470070004008000020FF
:101DE00040420F0037B51E4DAB6DDA00044618D5E2
:101DF000FFF7BAFFB0F5007F23D1802C29D9A02CA2
:101E00008CBF02200120174A136823F00703034305
:101E10001360136803F00703181A18BF012003B0FA
:101E200030BDAB6D43F08053AB65AB6D03F08053B9
:101E30000193019BFFF798FFAB6D23F08053AB65D7
:101E4000D8E7802C07D808D0A4F170035842584135
:101E5000D9E70020D7E70320D5E70220D3E700BF6A
:101E60000010024000200240224B9A68D96812F00C
:101E70000C0205D00C2A15D101F00301012918D15B
:101E800019681D48090755BFD3F894101968C1F3A4
:101E90000321C1F3031150F821004AB30C2A09D0E1
:101EA00000207047042A22D0082A144818BF0020B6
:101EB00070470020DA6802F00302022A15D00F49A9
:101EC000032A08BF0846DA68D968DB68C3F34163B0
:101ED000C1F30621C2F302120133484301325B0011
:101EE000B0FBF2F0B0FBF3F070470548EBE70448B5
:101EF000704700BF001002400C6A000800127A0010
:101F00000024F4002DE9F743054608B9012047E015
:101F1000A64C0368A668E768DB0606F00C0607F027
:101F2000030773D51EB10C2E52D1012F50D1236857
:101F3000980702D5AB69002BE8D02368286A1907F7
:101F400056BFD4F8943023681B0903F0F003834292
:101F500029D2FFF747FF0028D8D1236843F00803B0
:101F6000236023682A6A23F0F00313432360636825
:101F7000EA6923F47F4343EA02236360FFF774FFB7
:101F8000A3688B4AC3F30313D35C03F01F03D84049
:101F9000884B1860884B1868FEF7DAFF002835D0A8
:101FA00003B0BDE8F083236843F00803236023688F
:101FB00023F0F003034323606368EA6923F47F435B
:101FC00043EA02236360FFF70DFF0028D6D09DE7A8
:101FD000AB69002B36D0236843F001032360FEF782
:101FE000F9FF804623689A0724D5236843F0080345
:101FF000236023682A6A23F0F00313432360636895
:10200000EA6923F47F4343EA022363602B68D8071D
:1020100029D42B68990767D42B68180700F19C8096
:102020002B68590700F1CA80A86A002840F0338164
:102030000020B5E7FEF7CEFFA0EB08000228D1D9BB
:102040000320ADE7236823F001032360FEF7C2FFFE
:10205000804623689B07D9D5FEF7BCFFA0EB08009C
:102060000228F6D9ECE7082E03D00C2E08D1032F56
:1020700006D123689A03CCD56B68002BC9D145E7FC
:102080006B68B3F5803F10D1236843F4803323603D
:10209000FEF7A0FF804623689B03BAD4FEF79AFFA1
:1020A000A0EB08006428F6D9CAE7B3F5A02F04D145
:1020B000236843F480232360E6E7226822F4803219
:1020C0002260226822F480222260002BE0D1FEF7F9
:1020D00081FF8046236898039BD5FEF77BFFA0EB2A
:1020E00008006428F6D9ABE7042E03D00C2E10D1DB
:1020F000022F0ED12368590503D5EB68002B3FF45E
:1021000005AF63682A6923F0F85343EA026363600A
:1021100082E7EB687BB1236843F480732360FEF7AA
:1021200059FF074623685A05EBD4FEF753FFC01B3F
:102130000228F7D984E7236823F480732360FEF72D
:1021400049FF074623685B057FF566AFFEF742FF50
:10215000C01B0228F6D973E76B699BB1D4F89430A1
:1021600043F00103C4F89430FEF734FF0746D4F877
:1021700094309A073FF554AFFEF72CFFC01B02289E
:10218000F5D95DE7D4F8943023F00103C4F8943016
:10219000FEF720FF0746D4F894309B077FF540AF49
:1021A000FEF718FFC01B0228F5D949E700100240CE
:1021B000FB6900080800002004000020A36DD8007F
:1021C00029D4A36D43F08053A365A36D03F080531E
:1021D0000193019B4FF00108794F3B68D9051DD54C
:1021E000AB68012B2BD1D4F8903043F00103C4F835
:1021F0009030FEF7EFFE41F288390746D4F8903070
:102200009B0742D5B8F1000F3FF40EAFA36D23F04A
:102210008053A36508E74FF00008DDE73B6843F40F
:1022200080733B60FEF7D6FE81463B68DA05D7D463
:10223000FEF7D0FEA0EB09000228F6D900E7052B37
:1022400006D1D4F8903043F00403C4F89030CAE7C4
:10225000D4F8902022F00102C4F89020D4F8902005
:1022600022F00402C4F89020002BC2D1FEF7B2FE87
:1022700041F288390746D4F890309807C2D5FEF766
:10228000A9FEC01B4845F6D9DAE6FEF7A3FEC01B3F
:102290004845B3D9D4E60C2E5CD02368022823F03D
:1022A000807323603BD1FEF795FE064623689901B3
:1022B0002FD4E268434B1340EA6A13436A6B43EA44
:1022C00002232A6B013A43EA0213AA6B120943EA7A
:1022D0004243EA6B5208013A43EA42532A6C5208DD
:1022E000013A43EA4263E360236843F0807323606A
:1022F000E36843F08073E360FEF76CFE05462368F5
:102300009A013FF595AEFEF765FE401B0228F6D90F
:1023100096E6FEF75FFE801B0228C7D990E6236889
:1023200013F0205F02BFE36823F00303E360E36878
:1023300023F0887323F48033E360FEF74BFE0546F9
:1023400023689B017FF574AEFEF744FE401B022814
:10235000F6D975E601283FF423AEE368EA6A03F094
:10236000030191427FF4D2AD296B03F07002013971
:10237000B2EB011F7FF4CAAD696B03F4FE42B2EB0E
:10238000012F7FF4C3ADAA6B073A03F4003118BFE5
:10239000012291427FF4BAADEA6B520803F4C00106
:1023A000013AB1EB425F7FF4B1AD2A6C5208013AB9
:1023B00003F0C063B3EB426F14BF01200020EFE5D0
:1023C000007000408C809DF92DE9F0410E460446D6
:1023D00010B90120BDE8F081414A136803F00703FA
:1023E0008B422AD32368D90732D421688A075CD468
:1023F0003B4A136803F007039E425ED311F0040FBB
:10240000384D65D10B0706D5AB68226923F46053BC
:1024100043EAC203AB60FFF727FDAB68324AC3F360
:102420000313BDE8F041D35C03F01F03D8402F4BEA
:1024300018602F4B1868FEF78BBD136823F0070355
:102440000B431360136803F007039942C1D1C9E736
:102450006268244D032A2B681BD113F0007FB8D08B
:10246000AB6823F003031343AB60FEF7B3FD41F207
:1024700088380746AB68626803F00C03B3EB820F41
:10248000B3D0FEF7A7FDC01B4045F3D90320BDE83C
:10249000F081022A02D113F4003FE0E712B913F0F1
:1024A000020FDCE713F4806FD9E70E4AA068936847
:1024B00023F0F003034393609AE7136823F00703C4
:1024C00033431360136803F007039E4281D195E7FD
:1024D000AB68E26823F4E0631343AB6092E700BFAC
:1024E0000020024000100240FB69000808000020A4
:1024F00004000020F8B5454BDA6812F0030F0546DA
:102500000E461C4600682AD0DA6802F003028242B6
:102510003CD1002A3AD0DB686A68C3F30213013366
:10252000934233D1236823F080632360FEF752FD8A
:10253000074623681A0132D4AF68002E36D0012E28
:1025400050D12269286922F4C002400822F4FE42D8
:10255000013842EA072242EA4052226132E0022870
:1025600010D0032814D0012810D11B689F0738D53C
:10257000E3686A6823F07303013A184340EA0210E3
:10258000E060CFE71B6813F4806FF1D10120F8BD44
:102590001A689103ECD41B6813F4802FF5E7FEF75B
:1025A00019FDC01B0228C4D90320F8BD2169EB68BE
:1025B00021F41F3121F4407141EA07211B0941EA4E
:1025C00043412161236843F080632360FEF702FDED
:1025D000064623681B0113D52369AA6913432361A7
:1025E0000020F8BD2369686923F0C063400823F424
:1025F000FE43013843EA072343EA40632361E1E7EE
:10260000FEF7E8FC801B0228E3D9CDE7001002406A
:10261000F8B53D4BDA6812F0030F05460E461C462E
:10262000006828D0DA6802F0030282423AD1002A18
:1026300038D0DB686A68C3F302130133934231D1A7
:10264000236823F080532360FEF7C4FC0746236809
:102650009A0030D4A868002E34D06369296923F029
:10266000C063490823F4FE43013943EA002343EAE7
:102670004163636132E0022810D0032814D001289E
:1026800010D11B689F0738D5E3686A6823F073038D
:10269000013A184340EA0210E060D1E71B6813F4E6
:1026A000806FF1D10120F8BD1A689103ECD41B684A
:1026B00013F4802FF5E7FEF78DFCC01B0228C6D966
:1026C0000320F8BD6269EB6822F41F3222F44072E5
:1026D00042EA00221B0942EA43426261236843F056
:1026E00080532360FEF776FC064623689B0005D5E1
:1026F00063696A69134363610020F8BDFEF76AFCF1
:10270000801B0228F1D9DBE7001002402DE9F347D6
:10271000066816F40066044624D0416EB1F5800FB9
:102720002CD002D8C1B101261CE0B1F5000F0DD0AC
:10273000B1F5400FF7D14D4A616ED2F8883023F4DD
:1027400040030B43C2F8883000260BE0474AD368A9
:1027500043F48033D360EEE70430FFF7CBFE064648
:102760000028E8D02368D80406D5A16EB1F1807F97
:1027700074D008D8A9B10126354621E000212030C7
:10278000FFF746FFEBE7B1F1007F04D0B1F1407FE6
:10279000F1D1354609E0354AD36843F48033D3603C
:1027A000F7E7201DFFF7A6FE0546002D5CD12F4A56
:1027B000A16ED2F8883023F040730B43C2F8883002
:1027C0002368990340F14F81284FBB6DDA0040F137
:1027D00076814FF00008DFF89890D9F8003043F484
:1027E0008073C9F80030FEF7F5FB8246D9F8003057
:1027F000DB053FD5002D44D1D7F8903013F440735A
:1028000015D0D4F88420934211D0D7F89030D7F85F
:10281000902042F48032C7F89020D7F8902023F41B
:10282000407322F48032C7F89020C7F89030D80760
:1028300009D5FEF7CFFB41F288390546D7F890302D
:10284000990740F10981D7F89030D4F8842023F417
:1028500040731343C7F89030354612E0002104F16D
:102860002000FFF7D5FE9FE72E46A9E700100240A3
:1028700000700040FEF7AEFBA0EB0A000228B5D9BD
:102880000325B8F1000F03D0BB6D23F08053BB6567
:102890002368DA0708D59049A06BD1F8882022F088
:1028A00003020243C1F888209F0708D58A49E06BDC
:1028B000D1F8882022F00C020243C1F888205E077C
:1028C00008D58549206CD1F8882022F030020243D7
:1028D000C1F88820180708D57F49606CD1F8882096
:1028E00022F0C0020243C1F88820D90608D57A49EF
:1028F000A06CD1F8882022F440720243C1F88820ED
:102900009A0608D57449E06CD1F8882022F4406218
:102910000243C1F888209F0508D56F49E06DD1F8C2
:10292000882022F440220243C1F888205E0508D5A1
:102930006949206ED1F8882022F440120243C1F880
:102940008820580608D56449206DD1F8882022F4E3
:1029500040520243C1F88820190608D55E49606DCF
:10296000D1F8882022F440420243C1F88820DA05D9
:1029700008D55949A06DD1F8882022F4403202438D
:10298000C1F888209B040FD5534AE16ED2F88830F5
:1029900023F040630B43B1F1006FC2F8883064D17B
:1029A000D36843F48013D36023681F030FD54A4ACA
:1029B000216FD2F8883023F040630B43B1F1006FF0
:1029C000C2F888305CD1D36843F48013D3602368A5
:1029D0005E030FD5404A616FD2F8883023F0406320
:1029E0000B43B1F1006FC2F8883054D1D36843F47F
:1029F0008013D3602368580412D53749A26FD1F8E9
:102A0000883023F040531343B2F1805FC1F888301F
:102A10004CD10221201DFFF76DFD002818BF05468F
:102A20002268110408D52C49E06FD1F8883023F0D2
:102A300080430343C1F88830D30309D5264AD4F82C
:102A40008010D2F8883023F000430B43C2F888305E
:102A5000284602B0BDE8F087FEF7BCFA401B4845A7
:102A60007FF6ECAE0CE7354612E7B1F1806F9BD1F3
:102A70000121201DFFF73EFD002818BF054693E702
:102A8000B1F1806FA3D10121201DFFF733FD002894
:102A900018BF05469BE7B1F1806FABD10121201D26
:102AA000FFF728FD002818BF0546A3E7B2F1005F35
:102AB000B6D1022104F12000FFF7AAFDADE7BB6DFE
:102AC00043F08053BB65BB6D03F080530193019BC2
:102AD0004FF001087FE600BF00100240F0B5B9B02A
:102AE0004422002105A800F021FA142200216846A2
:102AF00000F01CFA8822002116A800F017FA6023C3
:102B00000125022410270D930726282305A81293D8
:102B100005970B950F941095119513961494159491
:102B2000FFF7F0F90F2003238DE8090004210023AB
:102B30006846029303930493FFF746FC4FF48043E7
:102B400016934FF08053349316A84FF080731D9363
:102B50001795189519971A961B941C94FFF7D6FD94
:102B60004FF40070FFF708F939B0F0BD0000000025
:102B700080B58CB0FEF712FAFFF7B0FF14220021E7
:102B800006A800F0D3F9464B4648DA6C464C42F0B2
:102B90000402DA64DA6C02F004020192019ADA6C3F
:102BA00042F00202DA64DB6C03F0020300220293BB
:102BB0004FF4804100250127029BFFF7C9F84FF42D
:102BC000804306A937480693079708950995FEF7AD
:102BD000E3FF18220DEB02002946039504950595A5
:102BE00000F0A4F9314BE7610426204684E8280070
:102BF0006661A560E56025612576657684F82050DC
:102C0000A562E56284F83050656384F83850FEF7B9
:102C100015FA03A920460395FEF7DCFE244B069324
:102C20000623079306A97F23204608960A96099350
:102C30000B950FF25C09D9E90089FEF707FC16A78E
:102C4000D7E900672046FEF70FFE4FF48041154894
:102C5000FFF783F84FF4FA70FEF7C2F9154B1D68C1
:102C60002846FDF74FFC42464B46FDF7EBFD32464A
:102C70003B46FDF7BDFCFDF793FF0F4B1860FDF7DA
:102C800063FC02460B460D48294600F057F9D9E788
:102C90000000000000FEAF40CDCCCCCCCC9C7440FA
:102CA0000010024000040048D80600200000045034
:102CB0000040C03A3C070020D4060020D869000834
:102CC0004FF06043D3F8802ED10703D5D3F8002E00
:102CD000D20702D40020704700BF1A68002AFBD038
:102CE000C0B21870F6E7000008B5FEF787FA014B8E
:102CF000186008BD3C0700200A4B1A6E42F0010222
:102D00001A661A6E82B002F001020092009A9A6D61
:102D100042F080529A659B6D03F080530193019BB2
:102D200002B070470010024010B5044688B014226B
:102D3000002103A800F0FAF82268154B9A4225D129
:102D400003F17043A3F5F83303A9DA6C114842F498
:102D50000052DA64DA6C02F400520192019ADA6CE1
:102D600042F00402DA64DB6C03F004030293029B7A
:102D7000202303930B230493FEF70EFF002212205F
:102D80001146FEF7B1FE1220FEF7E2FE08B010BDBC
:102D900000000450000800487047FEE7FEE7FEE729
:102DA000FEE7704770477047FEF708B90148FEF725
:102DB0002BBA00BFD806002070B50E4615460C464B
:102DC000A31B9D4201DC284670BDAFF3008004F8D0
:102DD000010BF5E770B50E4615460C46A31B9D4248
:102DE00001DC284670BD14F8010BFFF769FFF5E719
:102DF00008B50A4B1968024609B9094919601868EB
:102E0000694602448A4206D900F066F80C23036042
:102E10004FF0FF3008BD1A6008BD00BF98060020C3
:102E2000500700204FF0FF3070474FF400534B60C5
:102E30000020704701207047002070470F49D1F8EB
:102E4000883043F47003C1F888300D4B1A680020B5
:102E500042F001021A6098601A6822F0A85222F427
:102E600010221A604FF48052DA601A6822F480222D
:102E70001A6098614FF000638B60704700ED00E0CE
:102E800000100240DFF834D0002103E00C4B5B5807
:102E9000435004310B480C4B42189A42F6D30B4A6C
:102EA00002E0002342F8043B094B9A42F9D3FFF7B2
:102EB000C5FF00F017F8FFF75BFEFEE7008001207A
:102EC000206D0008000000207C0600207C06002009
:102ED00050070020FEE70000014B1868704700BF54
:102EE0000C00002070B50D4E0D4CA41BA410002545
:102EF000A54209D10B4E0C4C03F062FDA41BA4109B
:102F00000025A54205D170BD56F8253098470135FA
:102F1000EEE756F8253098470135F2E7186D0008BE
:102F2000186D0008186D00081C6D00080244034667
:102F3000934200D1704703F8011BF9E70FB40A4B25
:102F400013B51C6824B1A36913B9204602F07CF8BC
:102F500005AB049AA1680193204600F009F802B07D
:102F6000BDE8104004B070470C00002000000000D5
:102F70002DE9F04FBDB0884615461C461F468346D6
:102F800002F012FA03680D931846FDF771F90990E3
:102F9000BBF1000F05D0DBF8183013B9584602F02A
:102FA00053F8994B984537D1DBF80480D8F8643052
:102FB000D80707D4B8F80C30990503D4D8F85800CE
:102FC00002F002FAB8F90C309A0409D443F4005321
:102FD000A8F80C30D8F8643023F40053C8F86430F3
:102FE000B8F80C301E0702D5D8F8103003BB4146A4
:102FF000584601F039F8D8B1D8F86430DD0707D465
:10300000B8F80C309C0503D4D8F8580002F0DDF96C
:103010004FF0FF330A9326E07C4B984502D1DBF852
:103020000880C3E77A4B984508BFDBF80C80BDE702
:10303000B8F80C3003F01A020A2A18D1B8F90E2099
:10304000002A14DBD8F86420D00705D4990503D4EE
:10305000D8F8580002F0B9F923462A4641465846A6
:1030600000F0C2FF0A900A983DB0BDE8F08F9FEDD6
:10307000647B8DED067B00232CAC1F942193209361
:1030800005950393119310930A93059D2B4613F80E
:10309000012B12B1252A40F08380059BEE1A0DD03A
:1030A00084E84800219B33442193209B0133072B64
:1030B000209377DC08340A9B33440A932B78002B47
:1030C00000F039870023691C8DF85F301A464FF0F5
:1030D000FF3A0B931D460A204E1C09780596029173
:1030E00002992039582900F21D84DFE811F0B3005D
:1030F0001B041B04B8001B041B041B041B041B043F
:103100001B04BB0065001B04C400C7001B04E400D3
:10311000E700E700E700E700E700E700E700E70077
:10312000E7001B041B041B041B041B041B041B04DF
:103130001B041B041B041B0131011B0431011B0474
:103140001B041B041B04FA001B041B0446031B0482
:103150001B041B041B041B04AD031B041B04930072
:103160001B041B041B041B041B041B041B041B0467
:103170001B041B040D016B00310131013101FD0005
:103180006B001B041B0400011B04280348037C0381
:1031900007011B048D031B04AF031B041B04C7039F
:1031A0001D4673E71FAA4146584602F0CCFE002890
:1031B00040F099862CAC7EE701232B2205998BE702
:1031C0000F46FBE70BB18DF85F20AA0640F1B080F7
:1031D000073727F0070707F10803D7E900670493CB
:1031E000002E77F1000306DA76424FF02D0367EBED
:1031F00047078DF85F300123D0E200BFAFF30080B6
:103200000000000000000000C46A0008E46A000832
:10321000A46A00080BB18DF85F20A24B1193A90698
:1032200040F13183073727F0070707F10803D7E993
:1032300000670493EB070BD556EA070308D0302349
:103240008DF860309DF808308DF8613045F002054A
:103250000223A0E2002AB1D101232022AEE745F0EB
:103260000105ABE73E680B96002E07F10401A7DAD3
:1032700076420B960F4645F004059FE705994E1CD4
:10328000097802912A2910D04FF0000A0596029978
:10329000303909293FF624AF00FB0A1A05990E467A
:1032A00016F8011B02910596F1E73968059641EA87
:1032B000E17A043782E745F080057FE700210B9132
:1032C00002990B9E303900FB06110B9105990E46B1
:1032D00016F8011B02910299059630390929EFD998
:1032E000FEE645F0080569E745F0400566E7059903
:1032F00009786C2905D105990131059145F0200522
:103300005CE745F0100559E73B1D049300263B6838
:103310008DF888308DF85F604FF0010A08960DF146
:1033200088091EE10BB18DF85F2045F010054CE7D0
:1033300015F0100F07F1040303D03E680493F7174C
:103340004EE73E68049315F0400F18BF36B2F6E71B
:103350000BB18DF85F20073727F0070707F1080347
:10336000049397ED007B8DED067B069B1293079BE4
:1033700023F0004313934FF0FF324B4BDDE9120172
:10338000FDF7D0FB002840F0E3854FF0FF32464BBD
:10339000DDE91201FDF7A8FB002840F0D9850022E5
:1033A0000023DDE90601FDF795FB10B12D238DF813
:1033B0005F303E4B3E4A029925F080054729CCBF3D
:1033C000914699464FF0030A00260896C9E0BAF1E3
:1033D000FF3F22D0029B23F02003472B04D1BAF1F8
:1033E000000F08BF4FF0010A45F480731493079B48
:1033F000002B15DA069B0E93079B03F100430F93F6
:103400002D230C93029B23F02007462F0ED0452F2F
:1034100046D10AF1010602210AE04FF0060AE3E76D
:103420009DED067B00238DED0E7BEAE756460321DA
:103430001DAB01931AAB0093324619AB9DED0E0BF9
:10344000584600F00DFF472F814602D1EB0740F1AF
:103450008C8509EB0603462F039311D199F80030B0
:10346000302B09D100220023DDE90E01FDF728FBF6
:1034700010B9C6F101061996039A199B1A440392D2
:1034800000220023DDE90E01FDF71AFB90B930227E
:103490001D9B039999420FD9591C1D911A70F7E78A
:1034A0005646B8E7506A0008FFFFEF7F406A000801
:1034B000446A0008039B1D931D9B472FA3EB090340
:1034C000039340F0F880199BDF1C02DB9A4580F2E1
:1034D0001F81029B023B0293199A9DF808108DF8F8
:1034E0006C10531E002B1993B6BFC2F101032B229F
:1034F0002D22092B8DF86D2040F3FA800DF17B020F
:103500000A2693FBF6F006FB10333033092802F845
:10351000013C02F1FF31034600F3E380303301F850
:10352000013C023A0DF16E030DF17B008242194617
:10353000C0F0D980039A1BABCB1A012A109303EB7E
:10354000020A03DC15F00103089303D0099B9A4497
:10355000002308930C9B13B12D238DF85F30149D2D
:10356000002656453346B8BF53460C939DF85F304E
:1035700013B10C9B01330C9315F0020314931EBF7F
:103580000C9B02330C9315F08403159314D10B9B01
:103590000C9A9F1A002F0FDDA84B2360102F00F309
:1035A000D381219B67601F44209B21970133072B08
:1035B000209300F3E08108349DF85F3073B10DF182
:1035C0005F03236001236360219B01332193209BD0
:1035D0000133072B209300F3D8810834149B6BB17F
:1035E00018AB236002236360219B02332193209B4D
:1035F0000133072B209300F3D2810834159B802BD5
:1036000014D10B9B0C9A9F1A002F0FDD8C4B23605B
:10361000102F00F3CE81219B67601F44209B2197D0
:103620000133072B209300F3DD810834A6EB0A0653
:10363000002E0FDD824F2760102E00F3DD81209BCE
:103640002198666001330644072B2196209300F3EE
:10365000EA810834E90500F1F081219B84E8000645
:1036600053442193209B0133072B209340F31B8469
:103670001FAA4146584602F066FC002840F03384F9
:103680002CAC680700F112840A9B0B9A0C998A42B1
:10369000ACBF9B185B180A93219B3BB11FAA414604
:1036A000584602F050FC002840F01D84002320936F
:1036B000049F2CACE9E4029B652B7FF70DAF029BC6
:1036C000662B25D1199B002B1ADDBAF1000F01D111
:1036D000EE0702D5099A13445344199A08929A4660
:1036E00038E70A460DE712F8011B03F8011B1DE736
:1036F000302213448DF86E208DF86F301CA919E725
:10370000BAF1000F01D1ED0715D5099B0133E3E7AD
:10371000199A039B9A4206DBE8070ED5099B1344CE
:1037200067220292D9E7039B0999002A0B44F7DC30
:10373000C2F10102F3E70123CFE71346F0E70BB133
:103740008DF85F2015F0200F07F1040308D00A99C7
:103750003A68CE1708463146C2E900011F4694E494
:10376000E90603D53A680A991160F7E76A06F9D5C0
:103770003A68BDF828101180F0E745F0100515F003
:10378000200322D0073727F0070707F10803D7E9FE
:1037900000670493002300228DF85F20BAF1FF3FF9
:1037A00000F0E88325F08002089256EA070240F014
:1037B000E683BAF1000F00F0A980012B75D0022B2F
:1037C00000F0908000260027DFE33A1D15F010017D
:1037D000049202D03E680027DDE715F04003F9D0DF
:1037E0003E880027D6E73B1D0493302378228DF8CE
:1037F0006030144B3E681193002745F002058DF8A8
:10380000612002230292C6E73B1D0026BAF1FF3F6A
:103810000493D7F800908DF85F600AD05246314685
:103820004846FCF7D5FC002800F08C80A0EB090A84
:10383000CBE54846FCF71CFD8246C6E5746A0008E5
:10384000846A0008616A000845F01005AE0609D5D3
:10385000073727F0070707F10803D7E90067049344
:10386000012398E73B1D15F0100F049301D03E682B
:1038700002E06806FBD53E880027F1E70BB18DF822
:103880005F20A24BCAE43B1D15F0100F049301D03A
:103890003E6802E06A06FBD53E880027CAE44B4634
:1038A00074E3002F08BF0A2E05D20DF1F00930365F
:1038B00009F8416D85E30DF1B009304639460A2219
:1038C0000023FDF7BDF9303209F8012D0023304601
:1038D00039460A22FDF7B4F906460F4656EA0703B1
:1038E000EBD16EE3002600270DF1B00906F00F03BF
:1038F000119AD35C09F8013D330943EA07733A0989
:103900001E46174656EA0703F0D15AE33BB9E807CB
:1039100005D50DF1F009302309F8413D51E30DF1D2
:10392000B0094EE30BB18DF85F20029B002B00F035
:1039300002839DF808308DF8883000268DF85F608E
:103940000497E9E4064640E510236360219B1033A9
:103950002193209B0133072B209302DC0834103F76
:103960001AE61FAA4146584602F0EDFA002840F038
:10397000BA822CACF3E71FAA4146584602F0E3FA9C
:10398000002840F0B0822CAC16E61FAA41465846EB
:1039900002F0D9FA002840F0A6822CAC1EE61FAA3D
:1039A0004146584602F0CFFA002840F09C822CACE9
:1039B00024E610226260219A10322192209A01326C
:1039C000072A209202DC0834103F20E61FAA414655
:1039D0005846149302F0B7FA002840F084822CACC9
:1039E000149BF1E71FAA4146584602F0ACFA0028A2
:1039F00040F079822CAC19E610236360219B1033D0
:103A00002193209B0133072B209302DC0834103EC6
:103A100011E61FAA4146584602F095FA002840F0E8
:103A200062822CACF3E71FAA4146584602F08BFA9B
:103A3000002840F058822CAC0CE6029B652B40F32A
:103A4000AD8100220023DDE90601FDF739F80028E9
:103A500062D02F4B236001236360219B01332193AC
:103A6000209B0133072B209325DC0834199B039AF4
:103A7000934202DBEA077FF504AE0D9B2360099BAE
:103A80006360099A219B13442193209B0133072BE8
:103A900020931ADC0834039B5E1E002E7FF7F1ADE5
:103AA0001C4F4FF01009102E276018DC6660219B18
:103AB0001E442196D6E51FAA4146584602F043FA15
:103AC000002840F010822CACD0E71FAA414658468F
:103AD00002F039FA002840F006822CACDBE7219B8B
:103AE000C4F8049010332193209B0133072B2093BB
:103AF00002DC0834103ED6E71FAA4146584602F0C1
:103B000022FA002840F0EF812CACF3E7616A00084C
:103B1000726A0008846A0008199B002B7ADC9D4BAE
:103B2000236001236360219B01332193209B013398
:103B3000072B209344DC0834199B23B9039B13B94A
:103B4000EB077FF59EAD0D9B2360099B6360099A8F
:103B5000219B13442193209B0133072B209339DCB5
:103B600004F10803199E002E19DA8B4F76421024B7
:103B7000102E1F6038DC219A5E601644209A219630
:103B80000132072A03F10803209208DD1FAA4146EB
:103B9000584602F0D8F9002840F0A5812CAB039AD2
:103BA0005A600399219AC3F800900A442192209AFE
:103BB0000132072A20923FF75BAD03F1080460E56C
:103BC0001FAA4146584602F0BEF9002840F08B81FA
:103BD0002CACB1E71FAA4146584602F0B4F90028C0
:103BE00040F081812CABBDE7219A5C6010322192BC
:103BF000209A0132072A209202DC0833103EB7E7F0
:103C00001FAA4146584602F09EF9002840F06B81F9
:103C10002CABF3E7089B039A9342A8BF1346002BF3
:103C20001E460BDD6360219BC4F800903344219352
:103C3000209B0133072B209362DC0834089B002E65
:103C4000A8BF9B1B002B1E460FDD534F4FF0100AE1
:103C5000102E27605EDC219B66601E44209B21960F
:103C60000133072B20936CDC0834199B039A934291
:103C700001DBEF070DD50D9B2360099B6360099A5B
:103C8000219B13442193209B0133072B209362DC5B
:103C90000834039B089A9E1A199B039AD31A9E42D2
:103CA000A8BF1E46002E0CDD089B4B4484E848004C
:103CB000219B33442193209B0133072B209354DC19
:103CC0000834199B039A002EA2EB0303ACBF9E1B82
:103CD0001E46002E7FF7D5AC2F4F4FF01009102E47
:103CE00027607FF7E3AE219BC4F804901033219343
:103CF000209B0133072B209341DC0834103EEEE774
:103D00001FAA4146584602F01EF9002840F0EB80F9
:103D10002CAC93E7219BC4F804A010332193209B83
:103D20000133072B209302DC0834103E90E71FAAD2
:103D30004146584602F007F9002840F0D4802CACE8
:103D4000F3E71FAA4146584602F0FDF8002840F06C
:103D5000CA802CAC89E71FAA4146584602F0F3F806
:103D6000002840F0C0802CAC93E71FAA414658467B
:103D700002F0E9F8002840F0B6802CACA1E71FAAB9
:103D80004146584602F0DFF8002840F0AC802CACE9
:103D9000B4E700BF726A0008846A0008039B012B25
:103DA00001DCEE0776D501236360219BC4F8009007
:103DB00001332193209B0133072B209336DC0834F9
:103DC0000D9B2360099B6360099A219B13442193F7
:103DD000209B0133072B209331DC08340023002281
:103DE000DDE90601FCF76CFE039B5E1E00282FD167
:103DF00009F1010384E84800219B039A013B134425
:103E00002193209B0133072B20934ADD1FAA4146B3
:103E1000584602F098F8002865D12CAC1BAB236003
:103E2000109B6360109A219B13441AE41FAA414619
:103E3000584602F088F8002855D12CACC0E71FAADC
:103E40004146584602F07FF800284CD12CACC5E71B
:103E5000002EE3DD604F4FF01009102E276004DCC8
:103E6000219B66601E442196CBE7219BC4F80490F9
:103E700010332193209B0133072B209302DC08345D
:103E8000103EEAE71FAA4146584602F05CF850BBD4
:103E90002CACF5E701236360219BC4F8009001334B
:103EA000AEE70834BAE70834FFF7EBBB0B9B0C9A7C
:103EB0009D1A002D7FF7E8AB1026484B2360102D8C
:103EC00024DC219B65601D44209B21950133072B39
:103ED00020937FF7D9AB1FAA4146584602F033F82A
:103EE00000283FF4D1ABD8F86430D90707D4B8F82C
:103EF0000C309A0503D4D8F8580001F066FAB8F8E7
:103F00000C305B067FF5AFA8FFF782B8219B666097
:103F100010332193209B0133072B209302DC0834BC
:103F2000103DCAE71FAA4146584602F00CF8002887
:103F3000D9D12CACF4E7219B13B900232093D2E70D
:103F40001FAA4146584601F0FEFF0028F5D0CAE7F7
:103F5000DDE9062310461946FCF7E4FD00283FF48E
:103F600036AA1F4B1F4AFFF726BA1D9B1B1A039345
:103F7000FFF7A9BA56EA070208953FF41EAC012BD9
:103F80003FF48FAC022B3FF4AFAC2CABF10841EA0D
:103F90004771F80806F0070207460E46303256EA27
:103FA000070103F1FF3903F8012C7FF478AC08997D
:103FB000CD0706D5302A04D0302209F8012CA3F110
:103FC0000209564600230DF1B00A089D0893AAEB9A
:103FD000090AFFF7C6BA00BF846A0008746A0008BD
:103FE000486A00084C6A0008F0B50C46ADF26C4D0A
:103FF0001F468989636E1993E389ADF80E3021F06D
:104000000201236AADF80C1008931AA9A36A0A9357
:104010001546002306460091049116A84FF48061CE
:1040200002910591069301F0CDF92A463B46694677
:104030003046FEF79DFF051E07DB6946304600F05F
:104040006FFF002818BF4FF0FF35BDF80C301698F1
:104050005B0642BFA38943F04003A38101F0B3F99B
:1040600028460DF26C4DF0BD324B70B51D6806460A
:104070000C4625B1AB6913B9284600F0E5FF2E4B7D
:104080009C420FD16C68B4F90C309AB215072CD44D
:10409000D00611D40922326043F04003A3814FF0CF
:1040A000FF3070BD254B9C4201D1AC68EBE7244B3F
:1040B0009C4208BFEC68E6E7510712D5616B41B13D
:1040C00004F14403994202D0304601F093F80023F2
:1040D0006363A38923F02403A3810023636023691E
:1040E0002360A38943F00803A38123694BB9A38903
:1040F00003F42073B3F5007F03D02146304601F06E
:1041000091F9A28912F001030CD00023A360636926
:104110005B42A361236953B9B4F90C3013F08000FA
:10412000BAD170BD920758BF6369A360F2E700205F
:10413000F7E700BF0C000020C46A0008E46A00082A
:10414000A46A00082DE9F74F03690C699C42804678
:1041500000F38280013C01F114074FEA840E00F164
:10416000140657F8245056F8240006EB0E030135C8
:1041700007EB0E090193B0FBF5F595B34FF0000A7C
:104180003846B446D34650F8042B93B205FB03A33C
:104190004FEA134A9BB2ABEB0303120CBCF800B01E
:1041A00005FB02A213FA8BF34FEA124A1FFA82FBB5
:1041B000DCF80020CBEB124202EB23429BB243EA35
:1041C000024381454FEA224B4CF8043BDBD256F8C0
:1041D0000E3033B9019B043B9E421A4630D3C8F8D7
:1041E0001040404601F095FD002825DB01353046A2
:1041F0004FF0000E57F8042BD0F800C093B2AEEB8E
:104200000303120C13FA8CF3C2EB1C4202EB2342A1
:104210009BB243EA0243B9454FEA224E40F8043BC1
:10422000E8D256F8242006EB84032AB9043B9E42C8
:104230001A460BD3C8F81040284603B0BDE8F08FEB
:104240001268043B002ACAD1013CC5E71268043B4E
:10425000002AEFD1013CEAE70020EEE70000000071
:104260002DE9F04F57EC106B97B0CDE90067466A27
:10427000079104460A920F93209D3EB9102001F049
:1042800011F96062466086600660C660636A1968FC
:1042900051B15A684A60012393408B60204601F077
:1042A00063FB636A00221A60019B002BBFBF0123DE
:1042B0002B60019B23F00043B2BF019300232B60CE
:1042C000DDF80480A84B33EA08031BD10F9A42F2B1
:1042D0000F731360009B23B9C8F31300002800F08C
:1042E0007885219B53B9A14B21E0A14B0293083360
:1042F000219A1360029817B0BDE8F08F9B4B029390
:104300000333F5E7DDE90067002200233046394634
:10431000FCF7D6FB814660B10F9A01231360219B05
:10432000002B00F05385934B219A1360013B0293BD
:10433000E0E714AA15A947EC106B204601F061FDD7
:10434000C8F30A558246002D7ED0C7F3130343F00D
:104350007F51304641F44011A5F2FF35CDF8489029
:104360000022854BFBF790FF79A3D3E90023FCF7EC
:104370003FF979A3D3E90023FBF788FF06462846D7
:104380000F46FCF7CFF876A3D3E90023FCF730F90A
:1043900002460B4630463946FBF778FF06460F4685
:1043A000FCF7D6FB00228346002330463946FCF753
:1043B00091FB58B15846FCF7B5F802460B4630461B
:1043C0003946FCF77DFB08B90BF1FF3BBBF1160F3B
:1043D00059D86A4901EBCB01DDE90023D1E900019D
:1043E000FCF796FB002850D00BF1FF3B00230E9307
:1043F000149B5D1B6B1E069345BFC5F1010305931E
:10440000002300234CBF06930593BBF1000F3EDB56
:10441000069BCDF82CB05B44069300230893079BC2
:10442000092B00F2AF80052BC4BF043B0793079B09
:10443000A3F10203CCBF00260126032B00F2AE80BD
:10444000DFE803F082842F77159B149D1D4405F24D
:104450003243202B11DD009A05F21240C3F14003D4
:1044600022FA00F008FA03F31843FCF74BF8012393
:10447000A1F1F871013D129372E7C3F12000009B96
:1044800003FA00F0F1E70123B1E70E90B0E7059BD6
:10449000A3EB0B030593CBF10003089300230B93CD
:1044A000BDE7012309930A9B002B7ADD0493039354
:1044B000656A00226A60042101F114029A4275D9EA
:1044C0006968204601F01CFA636A28601B68029341
:1044D000039B0E2B00F2E580002E00F0E2809DEDA4
:1044E000007BBBF1000F8DED0C7B74DD234A0BF0DC
:1044F0000F034FEA2B1602EBC303F006D3E9008942
:1045000059D51F4B51EC170BD3E90823FCF79AF947
:10451000CDE9000106F00F060325194F002E4CD1FE
:1045200042464B46DDE90001FCF78CF9CDE900017C
:104530006AE0012309930A9B5B4404930133012B36
:104540000393B8BF0123B3E70023ABE70023F1E7F0
:1045500061436F63A787D23FB3C8608B288AC63F89
:10456000FB799F501344D33F0000F07F9D6A000801
:10457000946A0008736A00080000F83F306B000876
:10458000086B000801260023079309964FF0FF33BC
:1045900004930393002212230A9289E701230993CB
:1045A000F4E70123049303931A46F5E76A6801329E
:1045B0006A60490080E70225AFE7F10708D5404669
:1045C0004946D7E90023FCF713F8013580468946B0
:1045D00076100837A2E700F09D80CBF100069F4BD4
:1045E0009F4F06F00F0203EBC203D3E90023DDE97E
:1045F0000C01FBF7FDFFCDE9000136110023022578
:10460000002E7CD1002B91D10E9B002B00F08480DA
:10461000DDE900890022934B40464946FCF75AFAEF
:10462000002879D0039B002B76D0049B002B34DD2F
:1046300000228D4B40464946FBF7DAFFCDE90001E9
:10464000049E0BF1FF3701352846FBF76BFFDDE9D0
:104650000023FBF7CDFF0022844BFBF717FE8046BB
:10466000A1F15079002E5AD10022814BDDE90001E1
:10467000FBF70AFE42464B46CDE90001FCF748FA3B
:10468000002840F09B82424609F10043DDE9000129
:10469000FCF720FA002840F08F82DDE90C23CDE9F9
:1046A0000023159B002BC0F25081BBF10E0F00F3CD
:1046B0004C816A4B03EBCB03D3E900890A9B002BA7
:1046C00080F2DA80039B002B00F3D68040F07382E7
:1046D0000022674B40464946FBF78AFFDDE900238D
:1046E000FCF70CFA039E3746002840F04A82029BF2
:1046F000029A5D1C312313700BF1010B45E2F207A6
:1047000005D5D7E90023FBF773FF013501237610A8
:10471000083775E7022577E75F46039E94E7029A1C
:104720004E4B32441392099A711E002A48D003EB73
:10473000C103D3E9002300204E49FCF783F8424629
:104740004B46FBF7A1FD029D80468946DDE900014D
:10475000FCF7FEF90646FBF7E5FE02460B46DDE9EF
:104760000001FBF791FD303605F8016B42464B46E0
:10477000CDE90001FCF7AEF9002865D1DDE90023A1
:1047800000203849FBF780FD42464B46FCF7A2F972
:10479000002840F0BA80139B9D423FF47EAF002278
:1047A000314B40464946FBF723FF002280468946AD
:1047B0002D4BDDE90001FBF71BFFCDE90001C5E74B
:1047C00003EBC10142464B46D1E90001FBF710FF64
:1047D000CDE91001029DDDE90001FCF7B9F90646BB
:1047E000FBF7A0FE303602460B46DDE90001FBF781
:1047F0004BFD05F8016B139BAB42804689464FF099
:10480000000225D11B4BDDE91001FBF73FFD0246FD
:104810000B4640464946FCF77BF9002875D1DDE997
:10482000102300201349FBF72FFD02460B4640469C
:104830004946FCF74FF900283FF42FAF15F8013C2B
:10484000302B05F1FF3201D0BB464DE01546F5E7B0
:10485000054BFBF7CDFECDE90001BCE7306B00084E
:10486000086B00080000F03F0000244000001C40DE
:10487000000014400000E03FDDE90067029D424671
:104880004B4630463946FBF7DDFFFCF761F90090F7
:10489000FBF748FE42464B46FBF7AAFE02460B4694
:1048A00030463946FBF7F0FC009E039F303605F892
:1048B000016B029EAE1BB74202460B4638D1FBF796
:1048C000E5FC06460F4602460B4640464946FCF7C5
:1048D00001F9C8B932463B4640464946FCF7F0F874
:1048E00010B1009BDB070FD45146204601F03CF885
:1048F00000230F9A2B700BF101031360219B002BF7
:104900003FF4F8AC1D60F5E45F4615F8012C392A38
:1049100005F1FF3306D1029A9A4207D13023137072
:10492000013713461A7801321A708DE71D46ECE7FD
:104930000022A44BFBF75CFE0022002306460F4634
:10494000FCF7BEF800289AD0CEE7099A002A00F0BA
:10495000CD80079A012A00F3AF80129A002A00F056
:10496000A78003F23343089E059D059A1A440592D9
:10497000069A01211A442046069201F095F807464E
:10498000002D0CDD069B002B09DDAB42059AA8BF6C
:104990002B46D21A0592069AED1AD31A0693089B53
:1049A000F3B1099B002B00F0A580002E10DD3946E5
:1049B0003246204601F00EF952460146074620468F
:1049C00001F07BF851468046204600F0CDFFC246FC
:1049D000089B9A1B04D05146204601F0FBF8824602
:1049E0000121204601F060F80B9B002B064640F3A6
:1049F00083801A460146204601F0ECF8079B012B04
:104A000006467CDD4FF00008336906EB8303186926
:104A100000F0FCFFC0F12000069B184410F01F00BE
:104A200000F09680C0F12003042B40F38780059BA3
:104A3000C0F11C0003440593069B05440344069300
:104A4000059B002B05DD51461A46204601F010F962
:104A50008246069B002B05DD31461A46204601F0B2
:104A600007F906460E9B002B74D03146504601F0E4
:104A700050F900286EDA002351460A22204600F041
:104A80008AFF099B0BF1FF3B8246002B00F0A881B7
:104A9000002339460A22204600F07DFF049B002BAC
:104AA000074600F3C880079B022B40F3C48059E0FF
:104AB000149BC3F1360356E7039B5E1E089BB3426B
:104AC000BFBF089B0896F21A0B9BB6BF9B189E1B94
:104AD0000B93039BB8BF0026002BB9BF059B039A1D
:104AE000059D039BBCBF9D1A00233EE7089E059DC4
:104AF000099F45E7089A6EE7079B012B19DC009B8D
:104B0000BBB9019BC3F313039BB9019B23F0004383
:104B10001B0D1B0583B1059B01330593069B0133D8
:104B200006934FF001080B9B002B7FF46DAF012023
:104B300072E74FF00008F6E79846F4E780D0059A50
:104B40001C331A440592069A1A441D44134676E70C
:104B50000346F4E7039B002B36DC079B022B33DD77
:104B6000039B0493049B63B931460522204600F061
:104B700012FF01460646504601F0CBF800283FF7E9
:104B8000B6AD0A9B029D6FEA030B002303933146E7
:104B9000204600F0E9FE002F3FF4A6AE039B2BB1A8
:104BA000BB4203D01946204600F0DEFE39462046BF
:104BB00000F0DAFE98E600263746E2E7BB463746C5
:104BC00095E500BF00002440099B93BB039B049321
:104BD000029D31465046FFF7B5FA00F1300905F85D
:104BE000019B029B049AEB1A9A4200F3DC80029B21
:104BF000012AACBF9B18013398460023039351460A
:104C00000122204601F034F83146824601F081F855
:104C1000002800F38D8003D119F0010F40F0888047
:104C2000454615F8013C302B05F1FF32AFD1154652
:104C3000F7E7039B0493002D05DD39462A462046FD
:104C400001F016F80746B8F1000F4CD079682046FD
:104C500000F056FE3A6902320546920007F10C0157
:104C60000C3000F035FE01222946204601F000F804
:104C7000009BDDF80880039703F0010307460593C6
:104C800031465046FFF75EFA0399054600F13009B8
:104C9000504601F03EF83A4600903146204601F079
:104CA00052F8C368024603BB01460690504601F025
:104CB00030F8069A034611462046069300F054FE4B
:104CC000069BA3B9079A92B9059A82B9B9F1390F2F
:104CD00029D0009B002B01DD05F1310908F1010508
:104CE00088F8009053E73846C2E70123E3E7009ACB
:104CF000002A04DB25D1079A1ABB059A0ABB002BB0
:104D0000ECDD51460122204600F0B2FF31468246DA
:104D100000F0FFFF002803DCE0D119F0010FDDD027
:104D2000B9F1390FD8D1392388F8003008F10108DA
:104D3000454615F8013C392B05F1FF323BD00133D4
:104D400040E0002B08F1010505DDB9F1390FEAD08B
:104D500009F10109C4E7029B049A05F8019CEB1ACA
:104D60009342A8463FF44BAF514600230A22204607
:104D700000F011FE039B0399BB4282464FF00003F3
:104D80004FF00A02204604D100F005FE03900746CA
:104D900076E700F000FE002303900A223946204601
:104DA00000F0F9FDF3E7514600230A22204600F007
:104DB000F2FD82460DE7029B934205D1029A0BF168
:104DC000010B31231370E2E61546B2E7094BFFF7FA
:104DD000AEBA219B002B7FF488AA074BFFF7A7BA36
:104DE000049B002B3FF7F4AE079B022B7FF7F0AE3E
:104DF000B8E600BF726A0008946A0008B1F90C2096
:104E000093B22DE9F041054618070C4661D44B6872
:104E100042F40062002B8A8105DC0B6C002B02DC63
:104E20000020BDE8F081E66A002EF9D0002312F4DC
:104E300080522F682B6037D0606DA3895A0705D543
:104E40006368C01A636B0BB1236CC01A002302465F
:104E5000E66A216A2846B047431CA38906D129681F
:104E60001D294FD82D4ACA40D6074BD523F40063DD
:104E70001BB200226260D9042269A381226004D59A
:104E8000421C01D12B6803B96065616B2F6000295A
:104E9000C6D004F14403994202D0284600F0AAF992
:104EA00000206063BDE8F081216A01232846B047F5
:104EB000411CC2D12B68002BBFD01D2B01D0162B5B
:104EC00001D12F60ACE7A38943F04003A381BDE883
:104ED000F0810F69002FA3D09B070E6808BF4B69B4
:104EE0000F6018BF0023A6EB07088B60B8F1000F16
:104EF00096DD43463A46216AA66A2846B04700280E
:104F000007DCA38943F04003A3814FF0FF30BDE8E5
:104F1000F0810744A8EB0008E8E700BF010040204B
:104F200038B50B6905460C4613B90025284638BD2F
:104F300018B183690BB900F087F8144B9C421BD160
:104F40006C68B4F90C30002BEFD0626ED00704D43B
:104F5000990502D4A06D00F037FA28462146FFF7E4
:104F60004DFF636EDA070546E0D4A3899B05DDD4C7
:104F7000A06D00F02AFAD9E7054B9C4201D1AC683C
:104F8000DFE7044B9C4208BFEC68DAE7C46A00081C
:104F9000E46A0008A46A0008014900F0E7B900BF0C
:104FA00051600008002310B504460360436083602D
:104FB00081814366C281036143618361194608228E
:104FC0005C30FDF7B3FF054B6362054BA362054BF5
:104FD000E362054B2462236310BD00BFC15E00087D
:104FE000E35E00081B5F00083F5F000870B54A1EC3
:104FF000682555430E4605F1740100F05BFA04463E
:1050000040B1002180E842000C30A06005F1680248
:10501000FDF78CFF204670BD014800F0D5B900BFF8
:1050200048070020014800F0D0B900BF4807002021
:10503000014800F0C9B900BF43070020014800F053
:10504000C4B900BF4307002010B50446FFF7F0FFC6
:10505000A3691BB1BDE81040FFF7F0BFC4F8D8301A
:10506000C4F8DC30C4F8E030124B134A1B68A2626B
:105070009C4204BF0123A361204600F01FF860603A
:10508000204600F01BF8A060204600F017F8002230
:10509000E06004216068FFF785FF01220921A06814
:1050A000FFF780FF02221221E068FFF77BFF012358
:1050B000A361CFE73C6A0008994F0008F8B507469E
:1050C000FFF7AAFF1F4B1E68B36913B93046FFF7FD
:1050D000BBFFD836B4687368013B03D5336833B17E
:1050E0003668F7E7B4F90C507DB16834F4E7042171
:1050F0003846FFF77BFF044630600028F0D1FFF709
:1051000091FF0C233B602046F8BD4FF6FF73E3810F
:105110000123A38104F15800656600F053F9FFF7FD
:1051200081FF2560A560656025616561A561082234
:10513000294604F15C00FDF7F9FE6563A563A564EB
:10514000E564E0E73C6A00082DE9F843254FDFF805
:10515000A0808946064600F0C7FBBB685D68A8F1E1
:10516000110425F00305A4EB09042C44B4FBF8F466
:10517000013C08FB04F4444505DA304600F0BAFB74
:105180000020BDE8F8830021304600F089FEBB68AE
:105190002B449842F1D16142304600F081FE01304B
:1051A00010D10021304600F07BFEBA68831A0F2B25
:1051B000E3DD0D490968401A0C4943F0010308601A
:1051C0005360DAE7BB68094A2D1B45F001055D60B5
:1051D000136830461C1B146000F08CFB0120BDE8F6
:1051E000F88300BF00010020080500209C06002075
:1051F000800000002DE9F04104468846002900F0B7
:10520000AB8000F071FB58F8042C544D22F00100E3
:10521000A8F108031F18A9687E688F4226F00306CC
:1052200002F001021BD130443AB958F8082C9B1AFD
:1052300010449968DA68CA60916040F001025A60CF
:10524000AB60474B1B68984204D3464B2046196815
:10525000FFF77AFF2046BDE8F04100F04BBB7E60CF
:10526000002A39D158F8081C5B1A0844996805F1DE
:10527000080E714532D0D3F80CE0C1F80CE0CEF83E
:105280000810B9194968C9070AD43044B9683ABB4B
:10529000354EB14224D16B612B610122D9609960F6
:1052A00040F0010159601850002AD3D1B0F5007FB9
:1052B0001AD2C008811001228A40696801300A436D
:1052C0006A6005EBC00255F830109960083ADA6060
:1052D00045F83030CB60BDE70022D2E70122D0E7AD
:1052E000FE68CE60B160DBE7420A042A13D8820967
:1052F0003832511C05EBC20655F831108E4224D1CC
:105300000120921000FA02F2686802436A60DE60CF
:105310009960B360DEE7142A01D85B32E9E7542ACA
:1053200002D8020B6E32E4E7B2F5AA7F02D8C20BB4
:105330007732DEE740F254518A429ABF820C7C32C7
:105340007E22D6E789688E4204D04A6822F00302A2
:105350009042F7D3CE68DAE7BDE8F0810001002083
:105360000C050020CC060020080100202DE9F843A0
:105370008046894600F1D804002614B93046BDE8BD
:10538000F883A5686768013F01D52468F5E7AB8914
:10539000012B07D9B5F90E30013303D02946404619
:1053A000C84706436835EEE7044B1B68186A044B90
:1053B000002808BF1846F030704700BF0C000020DE
:1053C00010050020704770477047704770B50E4653
:1053D000B1F90E10002990B014461D4609DAB389C0
:1053E000002213F080002A6016D14FF480632360FE
:1053F00015E001AA00F002FF0028F0DB029A02F497
:105400007042A2F500535A425A414FF480632A6019
:105410004FF40060236002E040232360104610B088
:1054200070BD00008B8973B59D0706460C4607D5F5
:1054300004F14703236023610123636102B070BD5F
:1054400001AB6A46FFF7C2FF00990546304600F0FF
:1054500031F848B9B4F90C309A05EFD423F00303BE
:1054600043F00203A381E3E70D4BB362A3892060FD
:1054700043F08003A381009B6361019B20615BB1CA
:10548000B4F90E10304601F019F828B1A38923F0C1
:10549000030343F00103A381A3891D43A581CDE745
:1054A000994F0008024B0146186800F003B800BF8E
:1054B0000C0000202DE9F74F01F10B04162C81465A
:1054C00007D934F0070405D50C23C9F800300026AD
:1054D00031E110248C42F7D3484600F005FAB4F5C8
:1054E000FC7F9C4D36D204F108022A44A2F1080147
:1054F00056688E424FEAD40302D1D668B24210D029
:105500007368F268B16823F00303CA6033449160A2
:105510005A6842F001025A60484600F0EBF908363A
:1055200009E102338C4A2E69964211466DD07068AB
:1055300020F00300071B0F2F47DD331944F001044F
:1055400074606B612B61DA609A6047F001025A6007
:105550003750E1E7630A2AD0042B12D8A309383365
:105560005A1C05EBC202A2F108005668864206D01A
:10557000726822F00302111B0F291CDD013B01336D
:10558000D0E7142B01D85B33EAE7542B02D8230B66
:105590006E33E5E7B3F5AA7F02D8E30B7733DFE795
:1055A00040F25452934204D8A30C7C33D8E73F23F3
:1055B000D6E77E23D4E70029F16804DBB368D9601D
:1055C0008B60B318A4E70E46D0E7002F6A612A610A
:1055D00005DB3044436843F0010343609CE7B0F5CA
:1055E000007F44D2C0088710012202FA07F76A68D8
:1055F00001303A436A6005EBC00255F83070B7607D
:10560000083AF26045F83060FE6001209A1000FA16
:1056100002F26868824200F2A180024206D123F0C1
:1056200003035200024203F10403FAD005EBC30C5A
:10563000E0469E46D8F80C60464553D10EF1010E67
:105640001EF0030F08F10808F4D1980779D16B68B0
:1056500023EA02036B606868520082427ED8002A07
:105660007CD073460242E1D104335200FAE7420A89
:10567000042A15D882093832571C05EBC20E55F89A
:105680003770BE4526D10120921000FA02F26868F8
:1056900010436860C6F80CE0B760CEF80860B3E766
:1056A000142A01D85B32E7E7542A02D8020B6E3283
:1056B000E2E7B2F5AA7F02D8C20B7732DCE740F20C
:1056C0005457BA429ABF820C7C327E22D4E7BF681C
:1056D000BE4504D07A6822F003029042F7D3D7F88F
:1056E0000CE0D7E77068F76820F00300A0EB040A2D
:1056F000BAF10F0F10DDB268331944F00104746081
:10570000D760BA604AF001026B612B61D960996081
:105710005A6046F800A0FFE6BAF1000F0FDB3044F4
:10572000436843F00103436056F8083F4846DF6092
:10573000BB6000F0DFF8304603B0BDE8F08F3E46B6
:105740007AE75CF80809844503F1FF333FF47DAF45
:1057500081E700BF0001002008010020D5F808B053
:10576000DBF8046026F00306B44203D8331B0F2B8A
:1057700000F396804F4A17684F4A1168103701317D
:105780000BEB0603274405D04C4901390F44013186
:1057900049420F40394648460192009300F080FB91
:1057A000B0F1FF3F804656D0009B019A834201D959
:1057B000AB4550D142480168434507EB010EC0F8A4
:1057C00000E04049824613D10B4211D1AB683E4400
:1057D00046F001065E603C4ADAF8003011688B4200
:1057E00088BF1360394A11688B4288BF136032E06A
:1057F000106801301BBFA8EB03037344C2F800809C
:10580000CAF8003018F007001CBFC0F1080080443F
:105810002A4B474418440F40C71B3946484600F0FE
:105820003FFB431C08BF4046DAF80030C5F808804B
:1058300008BF0027A0EB08003B44074447F00107DE
:10584000AB45CAF80030C8F80470C4D00F2E10D889
:105850000123C8F80430AB685A6822F0030294426E
:10586000A2EB040301D80F2B1ADC484600F042F8E3
:105870002DE6DBF804300C3E26F0070603F00103AA
:105880003343CBF804300BEB060305220F2E5A608E
:105890009A60A0D90BF108014846FFF7ABFC9AE7E4
:1058A000AE6844F00102344443F001037260AC601E
:1058B000636031E6CC06002008050020800000006F
:1058C0009C0600207F000000C4060020C8060020BF
:1058D00010B5431E0A44914200D110BD11F8014B8E
:1058E00003F8014FF7E700000148FFF76DBD00BF67
:1058F000440700200148FFF768BD00BF44070020AF
:1059000070B5456A04460E463DB91020FFF7CAFD42
:105910006062456085600560C560656AEB6883B15B
:10592000636ADB6853F82600B8B9012101FA06F56D
:105930006A1D9200204600F04DFB60B14660856014
:105940000EE021220421204600F044FB636AE86057
:10595000DB68002BE4D1002070BD026843F82620EC
:1059600000230361C36070BD70B5446A06460D46EE
:105970003CB91020FFF796FD7062446084600460BB
:10598000C4603DB1736A6A68DB6853F8221029600D
:1059900043F8225070BD2DE9F0410D691F460646BF
:1059A0000C4601F1140E0023DEF8000081B202FB68
:1059B00001710F0C000C02FB007089B2013301EB86
:1059C00000419D424FEA10474EF8041BECDCD7B172
:1059D000A3689D4212DB616830460131FFF790FFFA
:1059E0002269023204F10C01804692000C30FFF76C
:1059F0006FFF21463046FFF7B7FF444604EB8503AF
:105A000001355F6125612046BDE8F081020C12047A
:105A10000346B2B90304102013F07F4F04BF1B02EA
:105A2000083013F0704F04BF1B01043013F0404FD7
:105A300004BF9B000230002B06DB5B0003D5013066
:105A400070470020E8E720207047036813F0070242
:105A500001460BD0DA0723D4980749BF5B089B089F
:105A600001200B605CBF0B600220704798B2A8B9A0
:105A70001B0C102013F0FF0F04BF1B0A08301A077D
:105A800004BF1B0904309A0704BF9B080230DA07E1
:105A900002D45B0806D001300B6070471046E9E77E
:105AA000002070472020704710B50C460121FFF7F9
:105AB00027FF01224461026110BD2DE9F74F144612
:105AC0000A6923699A42B8BF0B468946BCBFA14602
:105AD0001C46D9F81070D4F810A0D9F80830D9F8BD
